:020000040800F2
:100000004807002089010008C3110008B10F00084B
:10001000C11100088F0200086314000800000000EE
:10002000000000000000000000000000C7110008F0
:100030009102000800000000C5110008C911000865
:10004000A3010008A3010008A3010008A301000800
:10005000A3010008A3010008A3010008A3010008F0
:10006000A30100089302000899020008A3010008F8
:10007000A3010008A3010008A3010008A3010008D0
:10008000A3010008A3010008A3010008A3010008C0
:10009000A3010008A3010008A30100089F020008B3
:1000A000A3010008A3010008A3010008A3010008A0
:1000B000A3010008A3010008A3010008A301000890
:1000C000A3010008A3010008A3010008A301000880
:1000D000A3010008A3010008A3010008A301000870
:1000E000A3010008A3010008A301000800F002F822
:1000F00000F03AF80AA090E8000C82448344AAF188
:100100000107DA4501D100F02FF8AFF2090EBAE885
:100110000F0013F0010F18BFFB1A43F0010318473B
:100120002819000048190000103A24BF78C878C187
:10013000FAD8520724BF30C830C144BF04680C60ED
:10014000704700000023002400250026103A28BF35
:1001500078C1FBD8520728BF30C148BF0B60704739
:100160001FB51FBD10B510BD00F058F81146FFF7C0
:10017000F7FF01F00DFA00F076F803B4FFF7F2FF95
:1001800003BC00F07DF8000009488047094800479B
:10019000FEE7FEE7FEE7FEE7FEE7FEE7FEE7FEE737
:1001A000FEE7FEE704480549054A064B7047000094
:1001B0002B120008ED00000848010020480700202D
:1001C00048030020480300204FF0000200B513460A
:1001D00094469646203922BFA0E80C50A0E80C5067
:1001E000B1F12001BFF4F7AF090728BFA0E80C5018
:1001F00048BF0CC05DF804EB890028BF40F8042B11
:1002000008BF704748BF20F8022B11F0804F18BF7D
:1002100000F8012B7047704770477047754600F033
:100220002BF8AE4605006946534620F00700854688
:1002300018B020B5FFF7B6FFBDE820404FF000062C
:100240004FF000074FF000084FF0000B21F00701BE
:10025000AC46ACE8C009ACE8C009ACE8C009ACE801
:10026000C0098D46704710B50446AFF300802046A4
:10027000BDE81040FFF781BF00487047E400002050
:1002800001491820ABBEFEE7260002007047FEE7DA
:100290007047082000F04EB8102000F04BB810B5A1
:1002A000802000F047F84FF4807000F043F8BDE87C
:1002B00010404FF4007000F03DB872B6FEE7000049
:1002C00070B5044600F03CF90546601C02D00448B5
:1002D0000078044400F034F9401BA042FAD370BD0A
:1002E0000800002010B51249012402230A78802852
:1002F00015D007DC082810D0102802D1012A00D11F
:100300000B7010BDB0F5807F0DD0B0F5007FF8D137
:10031000012AF6D10320C87010BD0C7010BD012A4F
:10032000FCD1CC7010BD012AFCD1CB7010BD0000F7
:1003300000000020044910B50A68024202D008609B
:10034000FFF7D0FF10BD0000140401402DE9F84F65
:10035000DFF8B891002409F1040A0AF1040B2346DE
:100360000F270BF1040EC9E00125A5402A40AA423F
:100370007DD1674ED1F804C0ACEB0608B44532D04D
:1003800014DCBCF1030F3AD009DCBCF1000F2AD019
:10039000BCF1010F1CD0BCF1020F31D11DE0BCF14A
:1003A000110F17D0BCF1120F2AD119E0B8F5881F30
:1003B00019D006DCB8F5803F15D0B8F5801F1FD1E5
:1003C00011E0B8F5001F0ED0B8F5041F18D10AE0EF
:1003D000CB6815E0CB681B1D12E0CB6808330FE03B
:1003E000CB680C330CE08B682BB1012B4FF008036A
:1003F00003D0456104E0042302E0056100E000232E
:10040000FF2A01D8064601E000F104064FEA840500
:1004100001D9A5F12005D6F8008007FA05FC28EAE5
:100420000C0803FA05F548EA0508C6F800804D688F
:10043000ED0062D5374DAE6946F00106AE61AD699B
:1004400024F0030605F001050095334D06EB050C7D
:10045000DCF80850A607360F07FA06F825EA080563
:10046000DFF8B880404503D14FF0000817E044E0C2
:10047000DFF8AC80404502D14FF001080FE0DFF813
:10048000A480404502D14FF0020808E0DFF89880D0
:10049000404502D14FF0030801E04FF0040808FA8C
:1004A00006F848EA0508CCF808804D68D9F80060DD
:1004B000ED034D4601D5164300E096432E604D688E
:1004C000DAF80060AD03554601D5164300E09643C7
:1004D0002E604D68DBF80060ED025D4601D51643E5
:1004E00000E096432E604D68DEF80060AD02754670
:1004F00001D5164300E096432E60641C0D682A4621
:10050000E5407FF431AFBDE8F88F00000004014002
:1005100000001110001002400000014000080140DE
:10052000000C0140001001400014014080680840A8
:1005300000D0012070470AB1016170470904FBE750
:100540000148806870470000080000200248816868
:10055000027811448160704708000020074810B5F8
:10056000016841F010010160032000F075F80F20D0
:1005700000F006F800F024F8002010BD0020024032
:1005800070B50D4D04464FF47A712878B1FBF0F048
:100590000A490968B1FBF0F000F0CCFA48B9102C18
:1005A00007D200222146501E00F036F800206C6071
:1005B00070BD012070BD0000080000201400002064
:1005C0000C4808B5816941F001018161816901F040
:1005D00001010091C16941F08051C161C06900F021
:1005E000805000900448416821F0E06141F00071C2
:1005F000416008BD0010024000000140002809DBF6
:1006000000F01F02012191404009800000F1E0202C
:10061000C0F8001170470000F0B40E4B1B680C4688
:10062000C3F30223C3F10705042D00D90425191DC6
:10063000072901D2002300E0DB1E012606FA05F19E
:10064000491E214099409E40761E16403143F0BC21
:1006500000F008BF0CED00E0064900F00702086852
:100660004FF6FF03184040EA0220034A1043086097
:10067000704700000CED00E00000FA052DE9F0479E
:100680000F46050061D0434E306800F00700B842C5
:1006900009D2306820F0070038433060306800F03D
:1006A0000700B84251D128683B4C810712D540075A
:1006B00003D5606840F4E06060602878000703D5E7
:1006C000606840F4605060606068A96820F0F000E5
:1006D000084360602878C00728D06868012810D0D7
:1006E0002168022810D0890700292EDA616821F0DC
:1006F000030101436160FFF723FF804641F288391F
:100700000DE021688903EFE78901EDE7FFF718FFA6
:10071000A0EB0801494502D90320BDE8F0876068D5
:10072000696800F00C00B0EB810FEFD1306800F089
:100730000700B8420BD9306820F00700384330601A
:10074000306800F00700B84201D00120E5E72878C2
:10075000400705D56068E96820F4E0600843606000
:100760002878000706D56068296920F4605040EABF
:10077000C100606000F018F86168084AC1F3031115
:10078000515CC8400649086006480068FFF7F8FE5B
:100790000020C2E70020024000100240361A000884
:1007A000140000200C00002012A185B00FC98DE8B4
:1007B0000F0014A0144A006804905168134801F017
:1007C0000C03042B10D0082B0ED1C1F38343C903B3
:1007D0001DF803000AD5516804AAC1F34041515CD9
:1007E0000A4A5043B0FBF1F005B07047084948434E
:1007F000FAE7000002030405060708090A0B0C0DBE
:100800000E0F1010010200000010024000127A00CA
:1008100000093D002DE9F84F040070D02078C04D4C
:10082000C00749D06868C0F38100012807D0686814
:10083000C0F38100022809D16868C00306D5286882
:10084000800339D560680028E7D035E06068B0F5EE
:10085000803F0BD010B1B0F5A02F11D0286820F444
:1008600080302860286820F4802002E0286840F466
:1008700080302860606890B1FFF762FE06460AE0AB
:10088000286840F480202860F0E700BFFFF758FE9A
:10089000801B642873D828688003F7D50CE0FFF725
:1008A0004FFE064605E000BFFFF74AFE801B6428A6
:1008B000F0D828688003F7D420789A4E80074FF04C
:1008C00001094FF0000839D5686810F00C0F07D007
:1008D0006868C0F38100022809D16868C00306D4A3
:1008E0002868800714D52069012808D110E0206904
:1008F000B0B1C6F80090FFF723FE074605E00AE115
:10090000FFF71EFEC01B0228C4D828688007F7D551
:100910002868616920F0F80040EAC10028600DE015
:10092000C6F80080FFF70CFE074604E0FFF708FE5C
:10093000C01B022823D828688007F7D42078000736
:100940002CD57948A169D9B1C0F80090FFF7F8FD1E
:10095000074604E0FFF7F4FDC01B02280FD8686AC1
:100960008007F7D571484FF4FA510068B0FBF1F0F9
:10097000009000BF0098411E0091FAD20EE080E086
:10098000C0F80080FFF7DCFD074604E0FFF7D8FD64
:10099000C01B022875D8686A8007F7D42078400702
:1009A00060D5E8690027C00008D4E86940F08050AD
:1009B000E861E869012700F0805000905C48016818
:1009C000C90513D40168834641F480710160FFF7C3
:1009D000B7FD824606E000BFFFF7B2FDA0EB0A00BC
:1009E00064284ED8DBF80000C005F5D5E068012882
:1009F0000AD008B1052813D0286A20F00100286227
:100A0000286A20F0040002E0286A40F00100286211
:100A1000E06841F2883B98B1FFF792FD82460BE017
:100A2000286A40F004002862EEE700BFFFF788FD67
:100A3000A0EB0A0159455AD8286A8007F6D50CE080
:100A4000FFF77EFD824605E0FFF77AFDA0EB0A0185
:100A500059454CD8286A8007F6D41FB1E86920F0C0
:100A60008050E861E06988B36968C1F381010229B7
:100A700044D00228C6F8608004D0FFF761FD044628
:100A800038E034E0FFF75CFD074604E0FFF758FD6F
:100A9000C01B02282BD828688001F7D4206AB0F543
:100AA000803F05D16868A16820F400300843686081
:100AB000D4E908010843696821F4741108436860A7
:100AC000C6F86090FFF73CFD044606E025E000BF55
:100AD000FFF736FD001B022809D828688001F7D5EA
:100AE0001BE000BFFFF72CFD001B022802D90320EA
:100AF000BDE8F88F28688001F4D40EE00128F7D013
:100B00006868226A00F48031914204D1616A00F47D
:100B10007010884201D00120EAE70020E8E70000D9
:100B200000100240000042428004424214000020B3
:100B30000070004010B5401EB0F1807F01D301204D
:100B400010BD4FF0E02460610F21601700F08AFCB7
:100B50000020A06107202061002010BD70B590F832
:100B60003C20012A26D0012480F83C40022280F853
:100B70003D2003685A689D6822F070060A68324377
:100B80005A600D4B02689A4208D0B2F1804F05D0EE
:100B90000A4B9A4202D00A4B9A4204D1496825F086
:100BA00080031943916080F83D40002180F83C109B
:100BB000084670BD022070BD002C014000040040BA
:100BC0000008004010B5040003D094F83D0010B1B7
:100BD00007E0012010BD002084F83C00204600F012
:100BE0001FF8022084F83D00211D206800F01EFB44
:100BF000012084F8460084F83E0084F83F0084F821
:100C0000400084F8410084F8420084F8430084F8EE
:100C1000440084F8450084F83D00002010BD000029
:100C200008B50C4A01680C48914207D1816941F42A
:100C300000618161806900F4006009E0B1F1804FDA
:100C400007D1C16941F00101C161C06900F0010033
:100C5000009008BD002C01400010024090F83D10AB
:100C6000012901D001207047022180F83D10006861
:100C70000B49884208D0B0F1804F05D0094988421D
:100C800002D00949884204D1816801F00701062990
:100C900003D0016841F001010160002070470000AD
:100CA000002C0140000400400008004001680A6A6E
:100CB00041F211131A4207D10A6A9B101A4203D15A
:100CC0000A6822F001020A60012180F83D1000202C
:100CD000704770B5044690F83C00012817D00125F4
:100CE00084F83C50022084F83D002068826822F09D
:100CF000770222F47F4282600868502830D00DDCF1
:100D000020284DD005DC98B310283BD148E00220C4
:100D100070BD302844D0402834D139E0602828D034
:100D2000702806D0B0F5805F2CD0B0F5005F29D1D7
:100D30000AE0CB68D1E90121206800F0BAFA206806
:100D4000816841F0770109E0CB68D1E90121206891
:100D500000F0AFFA2068816841F48041816011E0C1
:100D6000CA684968206800F059FB5021206807E0F4
:100D700016E0CA684968206800F061FB60212068BD
:100D800000F0A1FA84F83D50002084F83C0070BDCA
:100D9000CA684968206800F041FB40212068EFE7FD
:100DA000226801461046EBE700B585B000210091AE
:100DB0000191029103910068B0F1804F11D10A486E
:100DC000816941F0040181618069694600F0040095
:100DD00004900F2000900220019003900348FFF739
:100DE000B5FA05B000BD0000001002400008014047
:100DF00070B5044690F83C000D4601280AD0012049
:100E000084F83C0042B1042A18D0082A2AD00C2ABF
:100E10004DD139E0022070BD206800F05DFA2068F5
:100E2000816941F0080181612068816921F0040134
:100E30008161206881692A69114311E0206800F00E
:100E400073FA2068816941F40061816120688169D9
:100E500021F480618161206881692A6941EA022167
:100E6000816124E0206800F08BFA2068C16941F0BC
:100E70000801C1612068C16921F00401C1612068D5
:100E8000C1692A69114311E0206800F0A5FA2068C1
:100E9000C16941F40061C1612068C16921F48061C8
:100EA000C1612068C1692A6941EA0221C16100204B
:100EB00084F83C0070BD10B5040003D094F83D00E8
:100EC00010B107E0012010BD002084F83C0020464E
:100ED00000F01EF8022084F83D00211D206800F07B
:100EE000A5F9012084F8460084F83E0084F83F000C
:100EF00084F8400084F8410084F8420084F84300FC
:100F000084F8440084F8450084F83D00002010BDBA
:100F10007047000010B50446022249B104290ED0E2
:100F2000082913D094F84100012816D0012010BDE3
:100F300094F83E000128F9D184F83E200FE094F89F
:100F40003F000128F2D184F83F2008E094F84000E7
:100F50000128EBD184F8402001E084F841200122EF
:100F6000206800F099F90F492068884203D1426C4B
:100F700042F4004242642068884208D0B0F1804FB9
:100F800005D00949884202D00849884204D18168C5
:100F900001F00701062903D0016841F00101016059
:100FA000002010BD002C014000040040000800405B
:100FB000FEE7000070B586B000243148009401942B
:100FC00002940394816941F010018161816901F00B
:100FD00010010491816941F020018161816901F072
:100FE00020010491816941F004018161816901F06E
:100FF00004010491816941F0080181618069214EF9
:1010000000F008004FF400550490002229463046B5
:10101000FFF791FA0220CDE90240009501256946CB
:1010200001953046FFF792F94FF46670009016482C
:10103000CDE90105154E69463046FFF787F9602076
:101040008DE8310069463046FFF780F90022022121
:101050000920FFF7E1FA0920FFF7D0FA0022022168
:101060000A20FFF7D9FA0A20FFF7C8FA0022022166
:101070001720FFF7D1FA1720FFF7C0FA06B070BDAE
:10108000001002400010014000002110000C01403F
:1010900010B586B00024174800940194029403947C
:1010A00004941349059401604721C0E901144FF6E7
:1010B000FF71C0E9031444618461FFF783FD08B147
:1010C000FFF7FBF84FF48050009069460948FFF79E
:1010D00000FE08B1FFF7F1F8049404A9054805944F
:1010E000FFF73CFD002801D0FFF7E7F806B010BD80
:1010F000002C01405400002010B58EB0002407944D
:10110000089409940A940B941C2168460C94FFF7E8
:101110005BF82A484FF0804101604721C0E9011483
:1011200040F2E731C0E903148461FFF74BFD08B1D9
:10113000FFF7C3F84FF48050079007A91F48FFF747
:10114000C8FD08B1FFF7B9F81C48FFF7B4FE08B1B5
:10115000FFF7B3F80B940BA918480C94FFF7FEFCAB
:1011600008B1FFF7AAF86020CDE90004029400223C
:10117000694612480494FFF73BFE08B1FFF79DF85B
:10118000042269460D48FFF733FE08B1FFF795F8D2
:10119000082269460948FFF72BFE08B1FFF78DF8D2
:1011A0000C2269460548FFF723FE08B1FFF785F8D2
:1011B0000248FFF7F9FD0EB010BD00009C000020B2
:1011C000FEE7FEE770477047FFF7C0B930B58FB054
:1011D00028216846FEF7F8FF14210AA8FEF7F4FF5D
:1011E00001210804CDE90010002402940225049195
:1011F000CDE907504FF4E01009906846FFF70AFB6D
:1012000008B172B6FEE70F20CDE90A054FF4806001
:10121000CDE90C4002210AA80E94FFF72FFA00280E
:1012200001D072B6FEE70FB030BD7047F0B502686E
:10123000164B174C174D4FF08047984205D0B842D7
:1012400003D0A04201D0A84203D122F070064A6820
:101250003243984205D0B84203D0A04201D0A84200
:1012600003D122F44074CA6822434C6922F0800200
:10127000224302608A68C2620A688262984201D18F
:101280000969016301214161F0BD0000002C0140AA
:10129000000400400008004010B501F01F030121C8
:1012A000046A99408C430462016A9A4011430162C6
:1012B00010BD10B5846842EA032224F47F440A4337
:1012C0002243826010BD826822F070020A4342F01D
:1012D000070181607047000030B5026A22F0010208
:1012E0000262026A4368846924F073050C682C4327
:1012F00022F002058A682A430A4DA8420BD122F047
:101300000805CA6823F440732A434D6922F0040299
:101310001D438B692B4343608461496841630262CA
:1013200030BD0000002C014030B5026A22F01002EE
:101330000262026A436884690D6824F4E64444EA60
:1013400005248D6822F0200242EA05120B4DA842C6
:101350000ED1CD6822F0800242EA05124D6923F4D5
:10136000406343EA85038D6922F0400243EA850326
:101370004360846149688163026230BD002C014092
:1013800030B5026A22F480720262036A4268C4695C
:1013900023F4007324F073050C682C438D6843EA32
:1013A00005230C4DA8420ED1CD6823F4006343EA17
:1013B00005234D6922F4405242EA05128D6923F457
:1013C000806342EA05124260C4614968C1630362F6
:1013D00030BD0000002C014030B5026A22F480527A
:1013E0000262046A4268C3690D6823F4E64343EA73
:1013F00005238D6824F4005444EA0534064DA842C0
:1014000004D14D6922F4804242EA85124260C361F0
:1014100049680164046230BD002C014010B5036AC4
:10142000046A24F001040462846924F0F00444EAAC
:10143000021423F00A020A438461026210BD10B54F
:10144000036A23F0100303628369046A23F4704380
:1014500043EA023224F0A00343EA011182610162EF
:1014600010BDFEE70907090E002804DB00F1E020AB
:1014700080F80014704700F00F0000F1E02080F8C1
:10148000141D70477047704710490F4B0A789842F7
:1014900005D1012A03D14B7873B100234B700A4B5D
:1014A000183398420ED1012A0CD1887830B100202F
:1014B000887028B1042004E00123EFE70120F7E75A
:1014C00001208880704700002400002000000020D8
:1014D000704770B50446818A0069FFF727F8A17844
:1014E0000126814204D0A070E670FFF729F8606001
:1014F000E078002540B1FFF723F86168401A0F2813
:1015000002D3A0782070E57020786178884210D0EE
:10151000F8B1FFF715F8A168401AB0F57A7F02D844
:101520002046FFF7AFFF2046FFF7D2FF2573207854
:101530006070207B00280BD0FFF702F8A168401AEA
:1015400040F6B831884203D32046FFF79CFF25734D
:1015500070BD26732046FFF797FFFEF7F1FFA060EE
:10156000E5E701618282704770B505460748FFF7DD
:101570009DFB064C0020216848622046FFF76EFB69
:101580002068416AA942FCD370BD000054000020CD
:101590001CB5FEF7E3FFFFF719FEFFF70BFDFFF7A2
:1015A000ABFDFFF775FD0C210820CDE900010423F8
:1015B00000221F491F4800F0A1F91F4C1D4820229E
:1015C00021460C30FFF7CDFF1A4840222146243037
:1015D000FFF7C7FF194C012020700020E0701AE0CF
:1015E000E078012804D0022808D0032813D10BE0AA
:1015F000A28861780F4800F09DF90CE0A28861781C
:101600000C4800F01DF806E0A0886178083082B22E
:10161000084800F090F807480C30FFF75AFF0548DB
:101620002430FFF756FF20780228F4D1D8E70000D5
:101630009C00002018000020000C01400000002049
:101640002DE9F04190460446002540F2E73719B1F4
:10165000012938D1002640E0002607E036B1012EEE
:101660000BD0022E16D0032E27D11AE02068006876
:10167000476320680068856305E02068006845636B
:1016800020680068876320680068C7632068006876
:10169000056412E02068006845632068006887637D
:1016A00005E020680068476320680068856320685B
:1016B0000068C5632068006807644046FEF700FEC6
:1016C000761C042ECADBBDE8F08136B1012E0BD0AA
:1016D000022E10D0032E27D11AE02068006845633F
:1016E00020680068876319E0206800684563206807
:1016F0000068876305E02068006847632068006829
:10170000856320680068C7632068006805640BE093
:101710002068006847632068006885632068006867
:10172000C5632068006807644046FEF7C9FD761C63
:10173000042ECADBC7E72DE9F04102EBC20303EB3D
:10174000021204464FF6FF73002640F2E73003EA28
:10175000820721B101295DD10025804670E0002576
:10176000804607E0082D4FD2DFE805F0040C192170
:101770002D38415621680968C1F834802068006816
:10178000866327E0216840460968C1F834802168F3
:1017900009688E6313E020680068066434E02068FE
:1017A00000684663206800688663404607E020685A
:1017B00000684663216840460968C1F8388021689E
:1017C0000968C863E7E7206800684663216809681C
:1017D000C1F8388020680068C663DCE720680068CC
:1017E0004663216840460968C1F838801CE02068DB
:1017F0000068466320680068866320680068C663E6
:1018000040462168096808643846FFF7ADFE6D1C44
:10181000082DA7DBBDE8F081216840460968C1F8C2
:101820003480216809688E6321680968CE63E8E71F
:10183000082D31D2DFE805F0040F1C24373F4B564A
:101840002068006846632068006886632068006836
:10185000C663404608E02068006846632168404649
:101860000968C1F8388045E021680968086413E018
:1018700020680068466321680968C1F838802DE057
:10188000206800684663216840460968C1F83880CE
:1018900019E02068006806643846FFF765FE6D1C95
:1018A000082DC5DBB6E7206800684663206800683D
:1018B0008663404607E0216840460968C1F83480E5
:1018C000216809688E6321680968C863E1E72168B7
:1018D0000968C1F834802068006886632068006861
:1018E000C663D6E7216840460968C1F8348021689C
:1018F00009688E6321680968CE63B5E770B50D4647
:10190000DDE90416044628462560A280E380218193
:1019100066811146FFF7FEFAE1882068FFF7FAFAC0
:1019200021892068FFF7F6FA61892068BDE87040D8
:10193000FFF7F0BA2DE9F04190460446002640F248
:10194000E73719B101293BD1002543E0002507E025
:1019500035B1012D0BD0022D16D0032D2AD11DE05B
:1019600020680068476320680068866312E020688A
:101970000068466320680068866320680068C76363
:1019800020680068066415E02068006846632068E7
:101990000068876320680068C663F1E72068006814
:1019A000466320680068866320680068C663206814
:1019B000006807644046FEF783FC6D1C042DC7DBFE
:1019C000BDE8F08135B1012D11D0022D16D0032DC7
:1019D00020D126E02068006846632068006886639E
:1019E00020680068C66320680068076412E0206809
:1019F0000068466320680068876318E02068006814
:101A0000466320680068866320680068C7632068B2
:101A1000006806644046FEF753FC6D1C042DD1DBC4
:101A2000CEE7206800684763206800688663206806
:101A30000068C663EBE70000000000000000010240
:101A40000304060708090000681A000800000020C7
:101A50001800000028010008801A00081800002063
:101A600030070000440100080000010004000000ED
:101A70000100000010000000000000000024F4003D
:04000005080000ED02
:00000001FF
